:100000000C94D9010C9405120C94DE110C94B711C8
:100010000C9490110C9401020C9401020C9469113F
:100020000C9401020C94C4160C942C120C949B1288
:100030000C9401020C9401020C9401020C94010234
:100040000C9401020C9401020C9401020C94010224
:100050000C9401020C9401020C9401020C941F11E7
:100060000C9401020C9401020C9401020C94010204
:100070000C9401020C9401020C9401020C940102F4
:100080000C9401020C9401020C9401020C940102E4
:100090000C940F170C9401020C9401020C940102B1
:1000A0000C9401020C94CD140C9401020000000089
:1000B0000000004F00000007000700147F147F14A9
:1000C000242A7F2A122313086462364955225000DD
:1000D00000070000001C2241000041221C001408FF
:1000E0003E081408083E08080050300000080808C0
:1000F0000808006060000020100804023E514945D5
:100100003E00427F400042615149462141454B310A
:100110001814127F1027454545393C4A4949300398
:10012000017109073649494936064949291E0036F1
:100130003600000056360000081422410014141442
:100140001414004122140802015109063249794170
:100150003E7E1111117E7F494949363E414141227F
:100160007F4141413E7F494949417F090909013E9B
:100170004149497A7F0808087F00417F41002040BB
:10018000413F017F081422417F404040407F020CE4
:10019000027F7F0408107F3E4141413E7F090909EB
:1001A000063E4151215E7F09192946464949493198
:1001B00001017F01013F4040403F1F2040201F3F81
:1001C0004038403F63140814630708700807615102
:1001D000494543007F41410002040810200041418D
:1001E0007F0004020102044040404040000102043C
:1001F0000020545454787F484444383844444420C0
:10020000384444487F3854545418087E0901020C7D
:100210005252523E7F0804047800447D4000204042
:10022000443D007F1028440000417F40007C0418BA
:1002300004787C0804047838444444387C1414144A
:1002400008081414187C7C080404084854545420EA
:10025000043F4440203C4040207C1C2040201C3C6B
:100260004038403C44281028440C5050503C4464D2
:10027000544C44000836410000007F000000413625
:1002800008000C02040806081C2A080800030C0FCA
:1002900030333C3FC0C3CCCFF0F3FCFF080B00026F
:1002A000020200000904000001020200000524000F
:1002B00010010524010101042402060524060001A1
:1002C0000705810310004009040100020A00000034
:1002D00007050202400000070583024000000403F6
:1002E000090412010002EF020140FB1F002300017C
:1002F00001020301506F6C6F6C7520436F72706F59
:10030000726174696F6E00506F6C6F6C7520412D57
:10031000537461722033325534000706050401001E
:10032000080A0B0C0D0900000000240027002A0019
:100330002D00300000000000250028002B002E00BA
:100340003100000000002300260029002C002F00AF
:10035000040404040403040502020202040302026A
:10036000020206060606060604040202020404044B
:1003700008020110408040102040804080080204A4
:100380000180402010020110801020404020000019
:10039000000200090F0000030401000C000000002F
:1003A00000000000000000000000000000005D18D8
:1003B000611D11241FBECFEFDAE0DEBFCDBF12E01A
:1003C000A0E0B1E0EEEBF4E402C005900D92A2359E
:1003D000B107D9F724E0A2E5B2E001C01D92A13730
:1003E000B207E1F711E0C8EDD1E004C02197FE01AA
:1003F0000E940321C73DD107C9F70E94BF180C9482
:1004000052220C9400005B9887FD5D9A87FF5D98EF
:100410005B9A5B9886FD5D9A86FF5D985B9A5B9818
:1004200085FD5D9A85FF5D985B9A5B9884FD5D9A7A
:1004300084FF5D985B9A5B9883FD5D9A83FF5D986E
:100440005B9A5B9882FD5D9A82FF5D985B9A5B98F0
:1004500081FD5D9A81FF5D985B9A5B9880FD5D9A56
:1004600080FF5D985B9A0895FC01809104038823C6
:1004700011F13FB7F89482E08093E9002091F200F7
:10048000822F90E01816190614F481E090E088237A
:1004900039F0289844E6409303034091F1004083EB
:1004A000222339F02091F200211103C02BE6209382
:1004B000E8003FBF08958FEF9FEF08952FB7F8949E
:1004C00083E08093E9009091E800892F807295FF86
:1004D00004C09091F20080E4891B2FBF08958091A1
:1004E000FB0281110DC082E08093F70284E08093CB
:1004F000F8021092FA021092F90281E08093FB0256
:1005000087EF92E0089581508F3008F047C0E82FC0
:10051000F0E0E357FD4F0C940321AA02AE029C02C7
:10052000A202A602CE02CE02CE02B102B702BB02E6
:10053000BF02C502CE02C902809180008F778093EE
:1005400080000895809180008F7DF9CF8091800098
:10055000877FF5CF84B58F7784BD089584B58F7D6F
:10056000FBCF809190008F778093900008958091C9
:1005700090008F7DF9CF80919000877FF5CF80919B
:10058000C0008F778093C00008958091C0008F7D58
:10059000F9CF8091C200877F8093C2000895CF93E6
:1005A000DF93282F30E0F901E257FC4F8491F901E5
:1005B000E159FC4FD491F901E05BFC4FC491CC238D
:1005C000A1F081110E948302EC2FF0E0EE0FFF1FDB
:1005D000EE5BFC4FA591B491EC91ED2381E090E0AE
:1005E00009F480E0DF91CF91089580E090E0FACFA8
:1005F0001F93CF93DF93282F30E0F901E257FC4F90
:100600008491F901E159FC4FD491F901E05BFC4F71
:10061000C491CC23A9F0162F81110E948302EC2FE4
:10062000F0E0EE0FFF1FEC5CFC4FA591B4918FB78B
:10063000F894EC91111108C0D095DE23DC938FBFA4
:10064000DF91CF911F910895DE2BF8CFCF93DF93E9
:1006500090E0FC01E159FC4F2491805B9C4FFC0130
:1006600084918823C9F090E0880F991FFC01EA5D0E
:10067000FC4FA591B491FC01EC5CFC4FC591D49169
:1006800061110DC09FB7F8948C91209582238C93B3
:100690008881282328839FBFDF91CF9108956230FE
:1006A00051F49FB7F8943C91822F809583238C93CB
:1006B000E8812E2BEFCF8FB7F894EC912E2B2C9353
:1006C0008FBFEACF809168048F3F61F061E00E94A4
:1006D000260360E0809168040E94F8028BE193E0B9
:1006E0000197F1F70895809168048F3F61F061E010
:1006F0000E94260361E0809168040E94F8028BE169
:1007000093E00197F1F708953FB7F8948091F302D1
:100710009091F402A091F502B091F60226B5A89B43
:1007200005C02F3F19F00196A11DB11D3FBFBA2F83
:10073000A92F982F8827BC01CD01620F711D811D43
:10074000911D42E0660F771F881F991F4A95D1F7C8
:1007500008958F929F92AF92BF92CF92DF92EF92C5
:10076000FF924B015C010E9484036B017C010E949B
:1007700084036C197D098E099F09683E73408105C9
:100780009105A8F321E0821A9108A108B10888EE2A
:10079000C80E83E0D81EE11CF11C81149104A10451
:1007A000B10429F7FF90EF90DF90CF90BF90AF900A
:1007B0009F908F9008952FB7F8946091EF027091F9
:1007C000F0028091F1029091F2022FBF08950895F6
:1007D0004091E2025091E3022091E0023091E10267
:1007E00042175307B4F49091E8009570E1F39091AB
:1007F000E80092FD19C08093F1008091E20290918F
:10080000E30201968F739927892B19F48EEF809359
:10081000E8008091E2029091E30201969093E30256
:100820008093E20281E0089580E00895DF92EF92E4
:10083000FF920F931F93CF93DF93D82E8A01EB0182
:100840007B01E40EF51ECE15DF0559F0D7FE12C070
:10085000FE0184910E94E80321968111F4CF0FEFED
:100860001FEFC801DF91CF911F910F91FF90EF9083
:10087000DF9008958881EECF0F931F93CF93DF937E
:100880001F92CDB7DEB782E0898342E450E06CE985
:1008900072E080E80E9416040E946F02DC0112964A
:1008A0000D911C910115110589F0D801ED91FC9174
:1008B0000280F381E02DBE016F5F7F4FC801099573
:1008C00097FD04C0F80100851185ECCF89810F9058
:1008D000DF91CF911F910F910895615030F02091D9
:1008E000F100FC0120830196F8CF289884E68093DC
:1008F000030308958F929F92AF92BF92CF92DF929F
:10090000EF92FF920F931F93CF93DF936C017B01C4
:100910008A0180911701882309F45CC08091040347
:10092000882309F457C08091E60280FF05C08091BA
:10093000E00082608093E000E801B12C8AEFA82EED
:1009400093E0892E2AE3922E209711F4BB20D9F14F
:100950000E945E0281110AC0AA94AA20D9F161E026
:1009600070E080E090E00E94A903EECF8C171D0696
:1009700011F00CF08C2F9FB7F8948092E900209131
:10098000E80025FD02C09FBFDFCF282F30E0C21B4B
:10099000D30BF701815020F041914093F100FACF41
:1009A000E20EF31EBB2021F09092E800B12CEBCFB9
:1009B0008091E80085FDE7CF9092E800BB24B394D6
:1009C000209709F3F3CF5D9884E68093E502101633
:1009D00011063CF081E090E0F6019383828310E001
:1009E00000E0C801DF91CF911F910F91FF90EF9030
:1009F000DF90CF90BF90AF909F908F900895CF934E
:100A0000DF931F92CDB7DEB76983DC01ED91FC91D6
:100A10000280F381E02D41E050E0BE016F5F7F4F27
:100A200009950F90DF91CF91089583E08093E900BD
:100A30008091F200882319F08AE38093E8000895FA
:100A40000E945E0290E00895CF93DF931F92CDB78E
:100A5000DEB7FC018485958597FD08C02FEF3FEF39
:100A6000358724870F90DF91CF910895CE010196AD
:100A70000E943402019719F4898190E0F3CF8FEF3F
:100A80009FEFF0CF0F931F93CF93DF931F92CDB7BC
:100A9000DEB78C01FC018485958597FF0BC0CE01E4
:100AA00001960E943402019771F4898190E0F80167
:100AB00095878487F801848595850F90DF91CF9184
:100AC0001F910F9108958FEF9FEFF1CFFC01848567
:100AD000958597FD0BC09FB7F89482E08093E9005D
:100AE0008091F2009FBF90E0019608959FB7F8941F
:100AF00082E08093E9008091F2009FBF90E008952A
:100B00008091DD02E091DE02F091DF02882339F06E
:100B100084919FEB980F9A3120F4805E0895808134
:100B2000F8CF803269F42091DE023091DF02A90112
:100B30004F5F5F4F5093DF024093DE02232B01F79C
:100B400008951F93CF93DF930E948005D0E0C0E00B
:100B50001AE090ED980F9A30B8F41C9F90011D9FF9
:100B6000300D1124E901C80FD11D87FDDA95E097FA
:100B70008091DE029091DF0201969093DF028093D4
:100B8000DE020E948005E5CFCE01DF91CF911F915B
:100B900008953F924F925F926F927F928F929F92B1
:100BA000AF92BF92CF92DF92EF92FF920F931F937B
:100BB000CF93DF937B01D42E2091DA0221111BC049
:100BC00021E02093DA02109272001092C00034E00B
:100BD0003093C10039E03093C2002093C30023E07A
:100BE0002093BF0028EE2093D1001092BF001092F6
:100BF000D200579A789410920B01CC24C39497FF9B
:100C000003C09F77AAE0CA2EC8E2CC9EC02D112453
:100C1000D0E08C179D0750F021E0EC01C21206C015
:100C2000C13187E2D80710F0C0E1D7E24E01B12C04
:100C3000A12C4C2C512C712C612C9E01AFEFB7E0F4
:100C40000E94881E640D751D861D971D96958795BB
:100C500077956795A30192010E94661E60E072E19C
:100C60008AE790E0312C3394621773078407950765
:100C700028F09695879577956795F5CFA301920112
:100C80000E94D3209E0136952795620F731F811D08
:100C9000911DA50194010E94661E722E022F132F32
:100CA0002AE0C21207C0CE0105966AE070E00E94F9
:100CB000EF20EB01C83E83E0D80759F09701DE0131
:100CC0000E94881E28EE33E040E050E00E94341E6F
:100CD0007901109272008091C100807F83298093F6
:100CE000C1001093BF007092D1004D2D403108F02B
:100CF0004FE080E190E0841B910902C016950795B2
:100D00008A95E2F71093BF000093D200F092DC02C4
:100D1000E092DB0289B38FEF89BB84E0809372009D
:100D2000DF91CF911F910F91FF90EF90DF90CF90C7
:100D3000BF90AF909F908F907F906F905F904F90FB
:100D40003F900895CF93DF93EC01888581110EC009
:100D5000898591E098879A8562E0911101C060E0F1
:100D60000E9426038FE090E00197F1F789850E94A9
:100D7000CF023B8521E03817190609F420E0822FC5
:100D8000DF91CF9108952E98269A2D98259A2A982A
:100D9000229A2998219A80EA8093800081E18093A9
:100DA000810080E991E09093870080938600109203
:100DB00089001092880010928B0010928A0008958A
:100DC000CF93DF93EC018091D602811105C081E0C1
:100DD0008093D6020E94C30680E0D7FF04C0D1955D
:100DE000C195D10981E0D0938900C0938800811119
:100DF00002C0299801C0299A219ADF91CF910895C4
:100E0000CF93DF93EC018091D602811105C081E080
:100E10008093D6020E94C30680E0D7FF04C0D1951C
:100E2000C195D10981E0D0938B00C0938A008111D4
:100E300002C02A9801C02A9A229ADF91CF91089580
:100E4000CF93DF93EB010E940007CE01DF91CF919A
:100E50000C94E0067F928F929F92AF92BF92CF92B6
:100E6000DF92EF92FF920F931F93CF93DF93FC01DA
:100E700022853385232B09F476C06B01EC0110E049
:100E80008C851817E8F4E12EF12C8E859F85F701EB
:100E9000EE0FFF1FEC0DFD1D91838083EA85FB851E
:100EA000EE0DFF1D61E080810E94F802EA85FB855E
:100EB000EE0DFF1D61E080810E9426031F5FE0CFE1
:100EC00083E290E00197F1F710E08C851817A0F409
:100ED000E12EF12CEA85FB85EE0DFF1D60E080819F
:100EE0000E942603EA85FB85EE0DFF1D60E08081F0
:100EF0000E94F8021F5FE9CF0E9484034B015C014E
:100F00000E948403AB01BC01481959096A097B0995
:100F10008E859F85B0E0A0E0481759076A077B07D8
:100F200010F50E9484037B01E818F908712C8C8568
:100F3000781630F7072D10E0EA85FB85E00FF11FEA
:100F400080810E94CF02892B61F4000F111FF601EE
:100F5000E00FF11F80819181E816F90610F4F1820B
:100F6000E0827394E4CFDF91CF911F910F91FF90B6
:100F7000EF90DF90CF90BF90AF909F908F907F9039
:100F8000089520918702260F3327331F2132310520
:100F9000ECF42091AB02FC0190E080E0243069F099
:100FA00082E00895A09187022191AC0149595D4FDB
:100FB000A40FB52FB11D2C930196861798F380913D
:100FC0008702680F6093870280E0089581E00895AA
:100FD00008958FEF9FEF08958FEF9FEF0895809111
:100FE000600290E09195819591090895CF93DF93E8
:100FF000CB01EA01642F0E94C107CE01DF91CF919E
:101000000895CF93DF931F92CDB7DEB7698361E078
:10101000CE0101960E94C10781E090E00F90DF9120
:10102000CF910895289A209A08952898209A089593
:101030005F926F927F928F929F92AF92BF92CF9268
:10104000DF92EF92FF920F931F93CF93DF935C0198
:10105000D62FC42FF22E132F0E9415088D2F806BD0
:101060000E9403028C2F82958F7080610E94030280
:101070008C2F8F700E9403020E941208CF2DD12F57
:101080000C0F1D2F111D95E0692EC017D10709F413
:1010900044C07990872D8052990B9C01629EC001BB
:1010A000639E900D1124769C40011124F12CE12CBB
:1010B0009C0124553F4F69013FE1371508F5F601C2
:1010C000EE0DFF1DE491F0E084E0F595E7958A953B
:1010D000E1F7E457FD4F5490852D0E940302852DC2
:1010E0000E9403029FEFE91AF90A25E0E216F104D3
:1010F00019F780E00E94030280E00E940302C5CF3E
:1011000087E0E0E08715F8F2F401EE0DFF1DE254F0
:10111000FF4FEA0DFB1DE081D6CFDF91CF911F91EC
:101120000F91FF90EF90DF90CF90BF90AF909F9086
:101130008F907F906F905F9008955F926F927F92F3
:101140008F929F92AF92BF92CF92DF92EF92FF92D7
:101150000F931F93CF93DF935C01D62FC42FF22EF2
:10116000132F0E9415088D2F806B0E9403028C2F75
:1011700082958F7080610E9403028C2F8F700E9475
:1011800003020E941208CF2DD12F0C0F1D2F111D0D
:1011900085E0682EC017D10709F440C07990872DEB
:1011A0008052990B9C01629EC001639E900D112498
:1011B000769C40011124F12CE12C9C0124553F4FD9
:1011C00069013FE13715E8F4F601EE0DFF1DE491EA
:1011D000EF70F0E0E457FD4F5490852D0E9403021C
:1011E000852D0E9403029FEFE91AF90A25E0E21615
:1011F000F10439F780E00E94030280E00E940302BC
:10120000C9CF87E0E0E0871518F3F401EE0DFF1D6C
:10121000E254FF4FEA0DFB1DE081DACFDF91CF9161
:101220001F910F91FF90EF90DF90CF90BF90AF9004
:101230009F908F907F906F905F9008956F927F92B4
:101240008F929F92AF92BF92CF92DF92EF92FF92D6
:101250000F931F93CF93DF935C01D62FC42FF22EF1
:10126000132F0E9415088D2F806B0E9403028C2F74
:1012700082958F7080610E9403028C2F8F700E9474
:1012800003020E941208CF2DD12F0C0F1D2F111D0C
:1012900085E0682EC017D107A9F17990872D80527B
:1012A000990B9C01629EC001639E900D1124769C57
:1012B00040011124F12CE12C9C0124553F4F690180
:1012C0003FE1371588F4F601EE0DFF1D84910E9471
:1012D00003029FEFE91AF90A25E0E216F10481F70B
:1012E00080E00E940302D6CF87E0871548F0F7011F
:1012F000E80DF91DE254FF4FEA0DFB1D8081E7CF99
:1013000080E0E5CFDF91CF911F910F91FF90EF909B
:10131000DF90CF90BF90AF909F908F907F906F9015
:101320000895282F21FB0EF0559820FB0EF05D98B4
:101330000EF45D9A21FB0EF4559A08950F931F93B6
:101340008091590290915A02853C29E09207BCF4A1
:1013500020910503309106032538334020F0813D6C
:1013600027E0920764F420910D0330910E03253895
:10137000334008F444C0813D97400CF440C00E94C3
:10138000DB0300915B0210915C0220915D023091C1
:101390005E02AB01BC01401B510B620B730B8091D1
:1013A000220190912301092E000CAA0BBB0B84177C
:1013B0009507A607B70718F58091E8029091E90212
:1013C000909301018093000101969093E90280932C
:1013D000E80224EC39E030932301209322010497A2
:1013E00021F41092E9021092E8020E94DB0360935C
:1013F0005B0270935C0280935D0290935E02E5E075
:10140000F3E081E021913191283C310508F080E042
:1014100043E0EF30F407B1F7882351F080915F0289
:10142000811106C084E090E0909301018093000157
:101430001F910F910895CF93DF93EC0188810E9453
:101440009109298121FB0EF0209820FB0EF02898AD
:101450000EF4289A21FB0EF4209AE9EEF0E01082B7
:101460008C818093F0008B8180838A818093E2005D
:10147000DF91CF910895FC01A2EEB0E08C918283C0
:101480001C92A9EEB0E08C9183831C92A0EFB0E097
:101490008C9184831C9220E05D9921605599226093
:1014A000208320E0289921602099226021835D9883
:1014B000559A0895CF92DF92EF92FF920F93CF93B8
:1014C000DF93EC017C0184E0E80EF11CC7010E946F
:1014D0003B0A6E0184E1C80ED11C08E0960143E18D
:1014E00062E0CE010E949D08960143E163E0CE01D7
:1014F0000E9418086E0189E2C80ED11C960143E1D2
:1015000065E0CE010E949D08960143E166E0CE01B0
:101510000E941808C701DF91CF910F91FF90EF90C3
:10152000DF90CF900C941B0AEF92FF920F93CF9312
:10153000DF93EC017C0184E0E80EF11CC7010E94FE
:101540003B0A9E012C5E3F4F05E142E060E0CE0188
:101550000E941E099E01275D3F4F42E061E0CE01DF
:101560000E941E099E01225C3F4F42E062E0CE01D4
:101570000E941E099E012D5A3F4F42E063E0CE01BA
:101580000E941E099E0128593F4F42E064E0CE01AF
:101590000E941E099E0123583F4F42E065E0CE01A4
:1015A0000E941E099E012E563F4F42E066E0CE018A
:1015B0000E941E099E0129553F4F42E067E0CE017F
:1015C0000E941E09C701DF91CF910F91FF90EF900C
:1015D0000C941B0AEF92FF920F931F93CF93DF930C
:1015E0008C017C0184E0E80EF11CC7010E943B0ADB
:1015F0000E94150882E00E940302C0E00E941508C4
:101600008C2F806B0E94030280E10E9403020E94E3
:101610001208D0E080E00E940302DF5FD038D1F7EB
:10162000CF5FC83059F7C7010E941B0AF801128624
:10163000DF91CF911F910F91FF90EF900895AF929E
:10164000BF92CF92DF92EF92FF920F931F93CF93AF
:10165000DF937C01122F683008F043C0423008F05D
:1016600040C088E0861B8217D0F12223D1F1C42F1D
:10167000CC0FC40FDCE06D9FD02D1124DD5E67011F
:1016800024E1C20ED11C862F90E025E1429F800DFF
:10169000911D1124C80ED91E570184E0A80EB11C5B
:1016A000C5010E943B0A62E06C0F012F96014D2F8D
:1016B000C7010E949D0863E06C0F96014D2FC70182
:1016C0000E941808C501DF91CF911F910F91FF90E3
:1016D000EF90DF90CF90BF90AF900C941B0A182F23
:1016E000C6CFDF91CF911F910F91FF90EF90DF90C8
:1016F000CF90BF90AF900895BF92CF92DF92EF92BC
:10170000FF920F931F93CF93DF93EC01162FB42E0C
:10171000022F653198F527E0241780F185E1861BBB
:10172000801750F1002351F1CE014496E12EF12CA7
:1017300025E1B29EE00CF11C1124E80EF91E6E01A9
:1017400084E0C80ED11CC6010E943B0A412F440F01
:10175000410F440F4E5F97016B2DCE010E941E0971
:10176000C601DF91CF911F910F91FF90EF90DF9015
:10177000CF90BF900C941B0A082FD6CFDF91CF914A
:101780001F910F91FF90EF90DF90CF90BF90089541
:10179000089590E080E008959F92AF92BF92CF921B
:1017A000DF92EF92FF920F931F93CF93DF9380917D
:1017B0005D0490915E04892B09F450C080915F0410
:1017C00090916004892B09F449C00E94730365E07D
:1017D00073E08BE594E00E942A070E946203E09088
:1017E0006704F12C05E013E0C0905F04D090600422
:1017F000A0905D04B0905E04D0E0C0E0CE15DF059F
:101800006CF5D601ED91FD916D01D5018D919D9104
:101810005D01E81BF90BD1F0D8012D913C9150E00E
:1018200040E0281B390B41095109A8EEB3E00E94A2
:10183000531E9F0150E040E00E94341E293EB3E059
:101840003B0714F028EE33E037FF02C030E020E021
:10185000F801219331938F012196D0CFE091670455
:1018600085E0A82E83E0B82E10E000E050E040E0D4
:10187000C12CD12C7601912CF0E0EF17D9F0D501D5
:10188000CD91DD915D01C93CD1058CF4C333D10507
:1018900054F09801DE010E940921C60ED71EE81EF1
:1018A000F91E4C0F5D1FFF5F08511C4FE6CF9924B6
:1018B0009394EFCF911027C0E150FF0B44EF51E01C
:1018C000E49FC001E59F900DF49F900D112440917D
:1018D0006B0450916C044817590714F148EE53E01B
:1018E000E49FC001E59F900DF49F900D1124DF91BE
:1018F000CF911F910F91FF90EF90DF90CF90BF900D
:10190000AF909F9008959A0150E040E0C701B60162
:101910000E94661EC90130936C0420936B04E7CFCC
:1019200090E080E0E4CFCF92DF92EF92FF9280913F
:101930000001909101018230910509F493C09CF55A
:10194000009709F447C0019709F46DC010925F0237
:101950000E94CC0B805D97409C0197FF02C02D5FD9
:101960003F4F3595279535952795AC01440F551F69
:10197000840F951F280F391FC90186509F4F6AEFAA
:1019800070E0621B730B97FDD4C08B3F910510F084
:101990008AEF90E077FDD0C06B3F710508F492C0EC
:1019A0006AEF70E08FC08330910509F465C0049739
:1019B00069F681E080935F026AEF70E08AEF90E061
:1019C0000E9420078091590290915A02893E9340CB
:1019D000FCF424C081E080935F0286E990E00E94DD
:1019E000000786EE90E00E94E0060E94DB03C090B4
:1019F0005B02D0905C02E0905D02F0905E026C1998
:101A00007D098E099F09653F71408105910530F080
:101A100083E690E09093010180930001FF90EF90A6
:101A2000DF90CF90089581E080935F0288EC90E092
:101A30000E94000786EE90E00E94E0060E94DB0311
:101A4000C0905B02D0905C02E0905D02F0905E027C
:101A50006C197D098E099F096139714081059105D5
:101A6000B8F6DCCF81E080935F0288EC90E00E94C2
:101A700000078CED90E0E0CF81E080935F020E9450
:101A8000DB03C0905B02D0905C02E0905D02F090BE
:101A90005E026C197D098E099F0969327A408105C1
:101AA000910508F0B5CF0E94DB036C197D098E0902
:101AB0009F09693978408105910550F064EB70E029
:101AC0008CE49FEFFF90EF90DF90CF900C94200775
:101AD0000E94DB036C197D098E099F09613B7440EC
:101AE0008105910528F066E07FEF86E09FEFEACF61
:101AF0000E94DB036C197D098E099F096B317440CC
:101B00008105910528F070E060E090E080E0DACF98
:101B10000E94DB036C197D098E099F09683E7340A2
:101B20008105910508F07ACF6AEF70E08AEF90E0C6
:101B3000C9CF90E080E02ECF70E060E0C3CF0E947C
:101B4000CC0B8091050390910603209107033091FF
:101B50000803820F931F2091090330910A03820F1B
:101B6000931F20910B0330910C03820F931F209140
:101B70000D0330910E03820F931F90935A028093AE
:101B8000590220915702309158022817390724F43E
:101B9000909358028093570208950E943D22FB01C2
:101BA00001900020E9F73197AF01461B570BDC018C
:101BB000ED91FC910280F381E02D09948F929F9228
:101BC000AF92BF92EF92FF920F931F93CF93DF9349
:101BD000CDB7DEB7A1970FB6F894DEBF0FBECDBF6D
:101BE0007C01FA01CB0119A2223008F42AE08E010F
:101BF0000F5D1F4F822E912CB12CA12CBF01A5018E
:101C000094010E94661EF901CA016A300CF5605DFC
:101C1000D8016E938D01232B242B252B79F790E08F
:101C200080E0109721F0BD01C7010E94CF0DA19661
:101C30000FB6F894DEBF0FBECDBFDF91CF911F91DD
:101C40000F91FF90EF90BF90AF909F908F9008956D
:101C5000695CDECFCF92DF92EF92FF920F931F93DA
:101C6000CF93DF9377FF21C06A017B01EC01E8810C
:101C7000F9810190F081E02D6DE209958C014427F6
:101C80005527BA014C195D096E097F092AE0CE017A
:101C90000E94DE0D800F911FDF91CF911F910F9158
:101CA000FF90EF90DF90CF9008952AE0DF91CF91E1
:101CB0001F910F91FF90EF90DF90CF900C94DE0D6D
:101CC0000C94CF0D1F93CF93DF9385ED8093BC00D1
:101CD0008091630290916402A0916502B0916602C6
:101CE0000796A11DB11D23E0B695A79597958795F9
:101CF0002A95D1F72091BC0024FD03C01092AB02BD
:101D000052C04091630250916402609165027091EB
:101D10006602452B462B472B69F30097A105B105B9
:101D200041F02AE22A95F1F700C00197A109B10913
:101D3000E1CF80916202C1E0C0936102882399F1F2
:101D4000D091B8001091BA008091BC008A7B80933A
:101D5000BC0060E082E00E94F80260E083E00E9444
:101D6000F8021092AB02C093AD021092AC0261E097
:101D700082E00E94F80261E083E00E94F802809114
:101D8000B9008E7F8093B9008091B9008D7F8093D8
:101D9000B90088E48093B80085E48093BC00109378
:101DA000BA00D093B800DF91CF911F9108950F939F
:101DB0001F93CF93DF93EC015B98539A5A98529AF2
:101DC00085E38A95F1F700005A9A529A85E38A953D
:101DD000F1F70000CE010E94EA0A8E010C5F1F4F4E
:101DE000C8010E943B0A0E94150881EA0E94030272
:101DF00088EC0E94030281E80E9403028FEF0E9498
:101E000003028FEA0E940302C8010E941B0A81E0BC
:101E10008987DF91CF911F910F910895FF920F93C2
:101E20001F93CF93DF93EC01162F042FF22E898599
:101E3000811103C0CE010E94D70E8A85882319F034
:101E4000CE010E94EA0A2A893B89C90195958795A6
:101E50008C0F9D1FE889F98920FF08C0DC012D91B6
:101E60003C91E20FF31F0190F081E02D2F2D402FC8
:101E7000612FDF91CF911F910F91FF900994CF9324
:101E8000DF93DC01A354BF4F2C91283008F5EC01FF
:101E9000C454DF4FE881E531D8F4AC0175E1279FE8
:101EA000400D511D1124E40FF52FF11D648BFC0131
:101EB0002385211105C021E04C9168810E940E0FFD
:101EC00088818F5F888381E090E0DF91CF910895D2
:101ED00090E080E0FACF4F925F926F927F928F9264
:101EE0009F92AF92BF92CF92DF92EF92FF920F93A9
:101EF0001F93CF936B017C01742EAC019B010E9458
:101F0000CE2068E871E0811126C046015701E894AF
:101F1000B7F82FEF3FEF4FE75FE7C501B4010E942D
:101F2000CE2081110CC02FEF3FEF4FE75FE7C501D7
:101F3000B4010E94041F6CE871E0181664F02FEFE2
:101F40003FEF4FE75FE4C701B6010E945C2018161F
:101F5000ACF460E971E08FE593E0CF911F910F91B0
:101F6000FF90EF90DF90CF90BF90AF909F908F90B9
:101F70007F906F905F904F900C94CF0D2FEF3FEFBD
:101F80004FE75FECC701B6010E94041F87FDE1CF58
:101F900020E030E0A901C701B6010E94041F10E053
:101FA00000E087FF0AC06DE28FE593E00E943F0FDB
:101FB0008C01F7FAF094F7F8F094C0E060E070E07C
:101FC00080E09FE37C1641F020E030E040E251E405
:101FD0000E94091FCF5FF6CFA70196010E94981EAD
:101FE0002B013C010E947B1F4B015C012AE0BC01DC
:101FF000A4018FE593E00E94DE0D7C01E00EF11E4E
:10200000CC23D1F1C501B4010E94AA1F9B01AC01F0
:10201000C301B2010E94971E4B015C016EE28FE585
:1020200093E00E943F0FE80EF91EC15028F120E016
:1020300030E040E251E4C501B4010E9461202B016F
:102040003C010E947B1F4B01B12CA12C2AE0B50161
:10205000A4018FE593E00E94DE0DE80EF91EC50194
:10206000B4010E94AA1F9B01AC01C301B2010E94EE
:10207000971E4B015C01D9CFC701CF911F910F91E2
:10208000FF90EF90DF90CF90BF90AF909F908F9098
:102090007F906F905F904F90089548EA50E060E223
:1020A00070E083E793E00E944B2210921B04109291
:1020B0001C0480916A0381112AC0809168038111F8
:1020C00004C08FE593E00E94D70E809169038823B6
:1020D00021F08FE593E00E94EA0A20916D03309190
:1020E0006E03C90195958795815A9C4FE0916B03CA
:1020F000F0916C0320FF08C0DC012D913C91E20FB0
:10210000F31F0190F081E02D099510926A03089564
:10211000AF92BF92CF92DF92EF92FF920F931F93F5
:10212000CF93DF9382EEE82EF12CF701D08110825D
:1021300009EE10E0F801B080108290EFC92ED12C8A
:10214000F601A080108220E05D99216055992260FF
:10215000822F55985D9A90E19A95F1F7C9B10E9446
:102160009109F8011082F601A082F801B082F7010E
:10217000D0838C2F90E025E0959587952A95E1F7FF
:10218000809590958170DF91CF911F910F91FF9075
:10219000EF90DF90CF90BF90AF900895BF92CF9215
:1021A000DF92EF92FF920F931F93CF93DF938C01F7
:1021B000EA016C012DEBC20ED11CF60130813830E2
:1021C000D8F57C01FCEBEF0EF11CF7018081853125
:1021D00098F525E1281B90E02417150620F4C5E1A9
:1021E000D0E0C81BD90BF5E13F9F800D911D112454
:1021F000AE0198012C5E3F4F820F931F0E94422236
:10220000BC2EF8018385811108C02C2FF601408176
:10221000F7016081C8010E940E0FF70180818B0DCC
:102220008083CE01DF91CF911F910F91FF90EF90AE
:10223000DF90CF90BF900895D0E0C0E0F2CF1F9222
:102240000F920FB60F9211242F933F938F939F936A
:10225000AF93BF938091EF029091F002A091F102B1
:10226000B091F2023091EE0223E0230F2D3758F5A2
:102270000196A11DB11D2093EE028093EF02909371
:10228000F002A093F102B093F2028091F3029091D8
:10229000F402A091F502B091F6020196A11DB11DC4
:1022A0008093F3029093F402A093F502B093F602A8
:1022B000BF91AF919F918F913F912F910F900FBE42
:1022C0000F901F90189526E8230F0296A11DB11DAF
:1022D000D2CF1F920F920FB60F9211242F933F93DC
:1022E0004F935F936F937F938F939F93AF93BF931E
:1022F000EF93FF93E0912001F09121010995FF9167
:10230000EF91BF91AF919F918F917F916F915F916D
:102310004F913F912F910F900FBE0F901F901895E6
:102320001F920F920FB60F9211242F933F934F934A
:102330005F936F937F938F939F93AF93BF93EF932D
:10234000FF93E0911E01F0911F010995FF91EF911C
:10235000BF91AF919F918F917F916F915F914F91BD
:102360003F912F910F900FBE0F901F9018951F92C5
:102370000F920FB60F9211242F933F934F935F93B9
:102380006F937F938F939F93AF93BF93EF93FF933D
:10239000E0911C01F0911D010995FF91EF91BF9112
:1023A000AF919F918F917F916F915F914F913F91ED
:1023B0002F910F900FBE0F901F9018951F920F92A4
:1023C0000FB60F9211242F933F934F935F936F9308
:1023D0007F938F939F93AF93BF93EF93FF93E0917E
:1023E0001A01F0911B010995FF91EF91BF91AF91F7
:1023F0009F918F917F916F915F914F913F912F911D
:102400000F900FBE0F901F9018951F920F920FB64E
:102410000F9211242F933F934F935F936F937F936A
:102420008F939F93AF93BF93EF93FF93E091180126
:10243000F09119010995FF91EF91BF91AF919F9193
:102440008F917F916F915F914F913F912F910F905D
:102450000FBE0F901F9018951F920F920FB60F92FC
:1024600011248F939F938091E1009091E100937FDD
:102470009093E10083FF0FC01092E90091E09093E8
:10248000EB001092EC0092E39093ED0010920403A5
:1024900098E09093F00082FF22C093E09093E900CF
:1024A0009091F200992319F09AE39093E8009091AB
:1024B000E502992341F09091E50291509093E50255
:1024C000911101C05D9A90910303992341F090917D
:1024D0000303915090930303911101C0289A84FF44
:1024E00018C08091E2008E7E81608093E20080912E
:1024F000E1008F7E8093E1008091E6028E7E806114
:102500008093E6029F918F910F900FBE0F901F90C6
:10251000189580FFF7CF8091E2008E7E80618093D6
:10252000E2008091E1008E7E8093E1008091E602DE
:102530008E7E8160E5CF1F920F920FB60F9211240D
:10254000CF92DF92EF92FF920F931F932F933F93BF
:102550004F935F936F937F938F939F93AF93BF93AB
:10256000EF93FF93CF93DF93CDB7DEB76C97DEBFCA
:10257000CDBF1092E9008091E80083FF25C068E09C
:10258000CE0145960E946D0482EF8093E8008D890C
:1025900087FF39C09091E80090FFFCCF982F90768C
:1025A00009F034C19E894F89588D2F89F88C91117B
:1025B00031C0803861F58091E7028093F10010927C
:1025C000F1008EEF8093E8006C960FB6F894DEBFB2
:1025D0000FBECDBFDF91CF91FF91EF91BF91AF9132
:1025E0009F918F917F916F915F914F913F912F912B
:1025F0001F910F91FF90EF90DF90CF900F900FBE43
:102600000F901F9018959EEF9093E800C7CF1092FF
:10261000F100D5CF913059F48111D3CF413051051C
:1026200081F68091E7028D7F8093E702CACF9330D5
:1026300049F48111C6CF4130510519F68091E70266
:102640008260F2CF953041F48091E80080FFFCCFAA
:1026500020682093E300B5CF963009F0A9C00B8D18
:102660001C8D22E01092E9001092E3021092E20227
:10267000F2122EC01092E1021092E0020E943C047D
:102680001F8299E09983FA8291E09E8390EA98876D
:102690009AEF99872091E2023091E302275F3F4F42
:1026A0003C832B838D831092E9001092E3021092F9
:1026B000E2021093E1020093E00249E050E0BE0123
:1026C0006F5F7F4F80E00E9416040E943C0479CF28
:1026D0001093E1020093E0020E946F02DC01129667
:1026E0000D911C910115110509F451C1D801ED910D
:1026F000FC910480F581E02DBE016B5E7F4FC80127
:102700000995009709F03EC1F80100851185EACFCF
:10271000F3E0FF120EC08F89882309F440C0823095
:1027200061F440E862E187E093E00E942A18811199
:1027300048CF81E28093EB0047CF813029F440E815
:1027400062E184EF92E0F1CF833099F70E946F024B
:10275000DC011296ED90FC908E010F5F1F4F680117
:10276000E114F10479F0D701ED91FC910680F78135
:10277000E02DB801C7010995080F111DF701E0848C
:10278000F184EECFD8011C92F60101900020E9F708
:102790003197BF016C197D0940E0C601C6CF6EEDCF
:1027A00072E0FB01449150E080E80E94160409CFDA
:1027B000973009F4BECF983021F481E08093F10086
:1027C00000CF993009F0FDCE837009F0B2CFECE470
:1027D000F1E081E031E096E32191222371F08093D2
:1027E000E9003093EB00DF0111972C912093EC006E
:1027F0009093ED008F5F873079F78EE78093EA0042
:102800001092EA008F8980930403DBCE8B8D9C8D20
:102810001092E9001092E3021092E2029093E1021A
:102820008093E002898D811192C08E899D89913AB1
:1028300049F4813209F07DCF47E050E060E171E07A
:1028400080E0B3CF913209F074CF833269F48F897D
:10285000988DB0E0A0E080930C0190930D01A093BF
:102860000E01B0930F01ADCE803269F48091E80083
:1028700082FFFCCF67E080E191E00E946D048BEF66
:102880008093E8009ECE823209F09BCE8F898093A0
:102890001701EEEFFFE7859194918B3F9C4D51F12D
:1028A000E0E0F8E08091100190911101A0911201F7
:1028B000B0911301803B9440A105B105F1F48091E2
:1028C000170180FD1AC0EE3F8AE0F80789F587E717
:1028D00097E791838083809160008093E40288E190
:1028E0009BE00FB6F894A895809360000FBE90937C
:1028F000600067CEEEEFFAE0D5CF80819181873717
:10290000974709F05ECEA89580916000886180931A
:1029100060008091E40280936000EE3F2AE0F207BD
:1029200089F08091FE0A9091FF0A9183808349CEBD
:10293000808191818737980751F29093FF0A8093A5
:10294000FE0AC5CF1092FF0A1092FE0A3ACE0E94EC
:102950006F02DC0112960D911C910115110509F40D
:10296000E8CED801ED91FC910190F081E02DBE01FF
:102970006B5E7F4FC8010995811123CEF801008558
:102980001185EBCF181619060CF41BCED2CEF1E050
:10299000FF12BECE62EE72E004CF1F920F920FB60E
:1029A0000F9211244F925F926F927F928F929F921B
:1029B000AF92BF92CF92DF92EF92FF920F931F934D
:1029C0002F933F934F935F936F937F938F939F9337
:1029D000AF93BF93CF93DF93EF93FF93C091DB024D
:1029E000D091DC02CE0101979093DC028093DB0250
:1029F0002097A1F51092720078948091C100807F99
:102A000084608093C10083E08093BF0088EE809350
:102A1000D1001092BF001092D20081E080930B0190
:102A20008091DE029091DF02892BC1F08091D90262
:102A3000811114C070900A018091D802882379F125
:102A40008091D702882359F16091D70270E040E06D
:102A500088EE93E00E94C9051092D702FF91EF9192
:102A6000DF91CF91BF91AF919F918F917F916F91A6
:102A70005F914F913F912F911F910F91FF90EF9098
:102A8000DF90CF90BF90AF909F908F907F906F908E
:102A90005F904F900F900FBE0F901F901895552488
:102AA000539470ECA72E7DE5B72EEAE04E2EF4E0AD
:102AB0006F2EA0EDCA2EA7E0DA2EB4E0EB2EF12C9B
:102AC00004EF11E08FE0882E912C0E948005209168
:102AD000DE023091DF022F5F3F4F3093DF02209301
:102AE000DE02853609F473C00CF047C0813609F464
:102AF000B4C024F58C3309F468C08E3309F463C084
:102B0000813209F043C060920A01D0920701C0925D
:102B10000601F0920901E09208011093050100936B
:102B2000040190920301809202011092D8027090E9
:102B30000A018091040190910501C7CF833609F401
:102B40008FC010E00BE0843614F010E002E04CE09F
:102B5000749E000D11240E948005982F977F933258
:102B600009F080C08091DE029091DF02019690937F
:102B7000DF028093DE020F5FEECF8D3609F445C091
:102B800054F4873651F134F18C3651F11092DF0252
:102B90001092DE0263CF823709F44CC044F48F36C2
:102BA000A9F70E94A105782E80930A018ECF843761
:102BB00009F443C0863751F70E94A10590930301A1
:102BC0008093020182CF739480CF7A947ECF10E0FD
:102BD00004E0BDCF10E005E0BACF10E007E0B7CFCA
:102BE0000E94A1059093090180930801809106013C
:102BF0009091070160910801709109010E94EF20F6
:102C0000709305016093040160CF0E9480058C36AB
:102C100061F41092D8028091DE029091DF02019659
:102C20009093DF028093DE0250CF5092D802109230
:102C3000D702F1CF11E000E08ACF0E94A105BC01CC
:102C4000C5010E94EF20469EC001479E900D1124B1
:102C50009093070180930601C9CF10E009E077CF78
:102C600010E0E9CF8D3269F48091DE029091DF02AD
:102C700001969093DF028093DE0201500E9480054E
:102C8000F1CFE0900401F09005018153883058F4B1
:102C9000E0900601F09007010E94A105BC01C70168
:102CA0000E94EF207B016701D694C7940E948005A3
:102CB0008E3261F48091DE029091DF020196909352
:102CC000DF028093DE02EC0CFD1CEECF8091D80277
:102CD000882349F0C701969587958093D702809104
:102CE000D702E81AF108C0900201D0900301111137
:102CF00004C00F3F11F0C11007C040E0B70188EEDB
:102D000093E00E94C905AACE013128F010EF100F00
:102D1000103608F01FE5812F6CE00E94E320582F49
:102D200044EF450390011124210F311D2C30310552
:102D300038F4220F331FF901ED5CFE4FC081D181C1
:102D40008730C1F0082E02C0CC0FDD1F0A94E2F7D5
:102D5000823040F0CE0105966AE070E00E94EF20DC
:102D6000CB0102C0CE0190584C2D403108F04FE00D
:102D7000B701C7CFCE0126E0880F991F2A95E1F74A
:102D8000029665E070E0EACF1F920F920FB60F92A5
:102D900011242F933F934F936F937F938F939F9320
:102DA0008CB1282F30E03595279535952795422F02
:102DB000417083B190E064E0959587956A95E1F75D
:102DC000822781702091D5029091D4026091D20225
:102DD0007091D30228279427291B330B260F371F06
:102DE0003093D3022093D2022091D4029091D50245
:102DF000281729F0941719F091E09093D10280934D
:102E0000D4024093D5029F918F917F916F914F9102
:102E10003F912F910F900FBE0F901F9018951F920A
:102E20000F920FB60F9211242F933F934F935F93FE
:102E30006F937F938F939F93AF93BF93EF93FF9382
:102E40008091B900887F803609F44AC0F0F5883255
:102E500009F4A5C018F5803109F499C0B8F48823A5
:102E600009F4F5C0883009F492C0FF91EF91BF9149
:102E7000AF919F918F917F916F915F914F913F9112
:102E80002F910F900FBE0F901F901895883109F465
:102E900086C0803251F78093AA0214C0803409F4AE
:102EA0009BC040F48033B9F38833F9F68093AA02CB
:102EB00085ECAEC0803509F483C0883509F494C030
:102EC000883499F60E94620ED0CF883909F48AC0FE
:102ED00038F5883729F050F4883611F0803729F614
:102EE00083E08093AB021092A90255C0883809F4A0
:102EF00079C0803919F0803809F0B7CF8091A902E4
:102F0000803208F06FC0E091A90281E08E0F8093BB
:102F1000A9028091BB00F0E0E757FD4F80833BC0E2
:102F2000803B39F0D0F4803A09F477C0883A09F050
:102F30009CCF84E08093AB021092880210928702AB
:102F4000F0E0E0E009958091870281110FC081E0F7
:102F5000809387021092670209C0803C09F4A8CFD1
:102F6000883C09F4A5CF883B09F07FCFE091880227
:102F700081E08E0F80938802F0E0E959FD4F808157
:102F80008093BB00909188028091870229C0809134
:102F9000D0028093BB0085EC8093BC0066CF9091FB
:102FA000CF028091CE02981758F5E091CF0281E0D0
:102FB0008E0F8093CF02F0E0E255FD4F8081E9CF84
:102FC000E091CF0281E08E0F8093CF028091BB0011
:102FD000F0E0E255FD4F80839091CF028091CE02C8
:102FE0009817C8F285E8D8CFE091CF0281E08E0F24
:102FF0008093CF028091BB00F0E0E255FD4F8083CB
:103000008091AD0281115ECF81E08093AC0284EAB1
:103010008093BC001092AB0228CF85EC8093BC005B
:103020001092AB028091A902803230F4E091A902A3
:10303000F0E0E757FD4F10826091A90270E089E847
:1030400092E0F0E0E0E009951092A9020ECF109214
:10305000AA0238CFEF92FF920F931F93CF93DF9383
:10306000F82E192FE62E042F81E0860F880F0E947C
:10307000E80383E00E94E803CF2DD12FEC0EFD2E54
:10308000F11CCE15DF05B9F007FF13C0FE018491D6
:103090000E94E803182F80E00E94E8038123219614
:1030A0008111EFCFDF91CF911F910F91FF90EF90A2
:1030B00008958881EDCF81E0F5CF1F93CF93DF9303
:1030C000EFE0F3E01382128288EE93E0A0E0B0E03C
:1030D00084839583A683B78386E591E0918380837B
:1030E0008FEF9FEF95878487EBE5F4E013821282E0
:1030F0001582148217821682118610861386128614
:1031000086E891E091838083EFE4F4E012821582F7
:1031100010868EE0818711E01287138780E891E0A6
:1031200091838083E7E4F4E0128215828AE791E0DC
:1031300091838083CFE5D3E01B821A8248EA50E076
:1031400060E270E083E793E00E944B221092460415
:10315000109245048AE59AE09D878C871F861E861B
:103160008FE19BE0998B888B1B8A1A8A1A8788E6E5
:1031700091E099838883DF91CF911F910895CF9338
:10318000DF93CDB7DEB7C856D1090FB6F894DEBFCE
:103190000FBECDBF789484B5826084BD84B5816054
:1031A00084BD85B5826085BD85B5816085BD809112
:1031B0006E00816080936E0010928100809181008A
:1031C0008260809381008091810081608093810082
:1031D0008091800081608093800080919100826066
:1031E0008093910080919100816080939100809103
:1031F00090008160809390008091C10084608093F2
:10320000C1008091C10082608093C1008091C100A3
:1032100081608093C1008091C30081608093C3006E
:103220008091C00082608093C0008091C200816064
:103230008093C20080917A00846080937A008091AC
:103240007A00826080937A0080917A008160809316
:103250007A0080917A00806880937A00109204034B
:103260001092E7021092E6028091D700816080936D
:10327000D70080EA8093D80089B5806189BD89B57F
:10328000826089BD09B400FEFDCF61E070E080E09E
:1032900090E00E94A9038091D8008F7C8061809388
:1032A000D8008091E000807F8093E0008091E10071
:1032B0008E7E8093E1008DE08093E200559A209A03
:1032C000EAE1F3E0E49190917B008E2F880F880F64
:1032D00080729F7D892B80937B00E770E064E09390
:1032E0007C0080917A00806480937A0080917A00DB
:1032F000182F107486FDFACF6091780070917900D4
:10330000072E000C880B990B61157105810591053D
:1033100011F00E942B1E8FEF9FEF90931C03809360
:103320001B0385E0EEE2F1E0DE01119601900D92C3
:103330008A95E1F710925E0410925D041092600489
:1033400010925F041092620410926104109264045F
:103350001092630410926C0410926B0485E08093C9
:1033600067048091650490916604892B51F485E08F
:1033700090E00E9418219093660480936504892B45
:10338000D1F080916704181798F4812F90E0E091B4
:103390006504F0916604E80FF91F21E030E02C0F7E
:1033A0003D1F820F931FDC018C9180831F5FE9CF4B
:1033B0008BE08093680480ED97E090936A0480939B
:1033C00069048FE494E00E94A2068823D1F36AE0A6
:1033D00070E080E090E00E94A9038FE494E00E94F6
:1033E000A206882371F38FE494E00E94A206811163
:1033F000FACF6AE070E080E090E00E94A9038FE4D9
:1034000094E00E94A2068111EECF0E944D1010920E
:103410001B0410921C0464E971E08FE593E00E94A4
:10342000600E64EF71E080E090E00E94A90346E73F
:10343000E42EF12C68E37FEF88EC90E00E942007F7
:1034400080915F0490916004892BC9F40091670416
:1034500010E0C801880F991F0E9418219093600402
:1034600080935F04009709F4A9C0FC0190E080E01C
:103470008017910724F4119211920196F9CF80914F
:103480005D0490915E04892BE9F40091670410E0DB
:10349000C801880F991F0E94182190935E048093A1
:1034A0005D04009709F48AC02091690430916A0490
:1034B000FC0190E080E08017910724F42193319380
:1034C0000196F9CF10E000E00E947303BE016F5B2C
:1034D0007F4F8BE594E00E942A070E946203809050
:1034E0006704912CFE0131965F019E012F5D3F4FD5
:1034F000BE016F5B7F4F3901DF0150E040E04815AE
:10350000590524F5FB0181919191BF010115110528
:1035100099F0F301C080D180C816D90668F0CD902B
:10352000DC9011978C159D0568F04F5F5F4F1296E8
:10353000F2E06F0E711CE3CFF301918380830115DC
:10354000110569F711969C938E93EFCF0F5F1F4F74
:103550000A30110509F0B8CF00915D0410915E04A6
:10356000A0915F04B091600490E080E04091670416
:103570004817190619F114F1F501419151915F01B4
:103580006D917D916417750730F4BD01625071092A
:10359000FB0151834083F901419151919F01F80151
:1035A000619171918F014617570730F4BF01625046
:1035B0007109FB01518340830196D8CFF1E0EF1AE6
:1035C000F10809F037CF70E060E090E080E00E9401
:1035D000200783E0282E312C412C512C94E9692EB0
:1035E0009AE0792E14E00E94DC1D29EE33E040E0E1
:1035F00050E00E94341E6130710509F014C20E942F
:10360000DB03A9966CAF7DAF8EAF9FAFA9970E94E9
:10361000DC1DA20191010E94341E6B017C012FEF81
:10362000C21AD20AE20AF20AA596DFAECEAEA5977A
:103630000E94DC1DA20191010E94341E6F5F7F4F2A
:103640008F4F9F4FA3967FAF6EAFA397A5964EADBA
:103650005FADA597A3968EAD9FADA3974817590769
:1036600039F36EE971E08FE093E00E94CF0D6EEACE
:1036700071E08FE093E00E94CF0D61EB71E08FE08D
:1036800093E00E94600E0D2C000CEE08FF08B701BD
:10369000A6018FE093E00E942A0E6EEA71E08FE0AF
:1036A00093E00E94CF0D67EC71E08FE093E00E9401
:1036B000600EA396AEADBFADA3974D01BB0FAA0898
:1036C000BB08B501A4018FE093E00E942A0E6EEAC8
:1036D00071E08FE093E00E94CF0D02E00E94DB03D7
:1036E000A9962CAD3DAD4EAD5FADA997621B730B96
:1036F000840B950B683E73408105910508F0BEC0B0
:1037000070E060E090E080E00E9420070E944D1091
:10371000109246041092450470926C0360926B0301
:1037200010926E0310926D034CE75BE050937003B0
:1037300040936F03109272031092710351E0509303
:10374000690310921B0400931C046EE971E08FE57D
:1037500093E00E94600E10921B0410931C046CED09
:1037600071E08FE593E00E94600E10921B0486E0EA
:1037700080931C0468EE71E08FE593E00E94600E78
:10378000B701A6018FE593E00E942A0EA7CF0E9401
:10379000DB036B017C0101E08091E8029091E9027A
:1037A000A396AEADBFADA397A817B90709F0F4C0B3
:1037B0000E94DB034B015C016C197D098E099F0996
:1037C0000E94AA1F20E030E04AE754E40E94091F4B
:1037D0006B017C0102E00E94DB03681979098A0908
:1037E0009B09683873418105910508F0B9C0E4E888
:1037F000FCE1F0932301E093220170E060E090E0AF
:1038000080E00E9420070E944D1010924604109202
:10381000450470926C0360926B0310926E031092D9
:103820006D032CE73BE03093700320936F031092FD
:1038300072031092710331E03093690310921B04FC
:1038400000931C046EEF71E08FE593E00E94600E20
:1038500010921B0410931C046FE072E08FE593E05C
:103860000E94600E42E0C701B6010E946B0FB3CF09
:103870000E949F0D0E949E090E94930C8091E80275
:103880009091E902A596AEADBFADA597A817B9076F
:1038900079F70E94DB036B017C010E94DB034FE0A0
:1038A00064E670E080E991E00E94C90502E00E94B0
:1038B000DB036C197D098E099F0968387341810506
:1038C000910508F064CFE4E8FCE1F0932301E09374
:1038D000220170E060E090E080E00E9420070E94FA
:1038E0004D10109246041092450470926C03609241
:1038F0006B0310926E0310926D032CE73BE0309344
:10390000700320936F03109272031092710331E0E1
:103910003093690310921B0400931C0463EF71E061
:103920008FE593E00E94600E10921B0410931C041C
:103930006CED71E08FE593E00E94600E10921B0425
:1039400046E040931C0468EE71E08FE593E00E942E
:10395000600EB501A4018FE593E00E942A0EA7CF67
:10396000A70196016091EA027091EB028091EC024E
:103970009091ED020E94981E6093EA027093EB0210
:103980008093EC029093ED0280E090E0892B09F4A3
:103990002ACE0E94000027CE0E944D1010924604AD
:1039A0001092450470926C0360926B0310926E0348
:1039B00010926D034CE75BE05093700340936F03EC
:1039C00010927203109271030093690310921B040A
:1039D00010931C046FE172E08FE593E00E94600E8B
:1039E00010921B0456E050931C046CED71E08FE5BF
:1039F00093E00E94600E10921B0487E080931C04E9
:103A000068EE71E08FE593E00E94600EB501A401BD
:103A10008FE593E00E942A0E0E949F0D0E949E094E
:103A20000E94930CB9CE0E944D1010924604109241
:103A3000450470926C0360926B0310926E031092B7
:103A40006D03ACE7BBE0B0937003A0936F031092DB
:103A500072031092710381E08093690310921B043A
:103A600080931C0461E372E08FE593E00E94600E96
:103A70006091EA027091EB028091EC029091ED026C
:103A800042E00E946B0F10921B0483E080931C04A1
:103A900060E472E08FE593E00E94600E4091E802DE
:103AA0005091E902052E000C660B770B8FE593E031
:103AB0000E942A0E0E949F0D0E949E090E94930C54
:103AC00063CF84E791E090935C0480935B048091E2
:103AD000650490916604009711F00E94B4218091D2
:103AE0005F0490916004009711F00E94B4218091CE
:103AF000630490916404009711F00E94B4218091B6
:103B00005D0490915E04009711F00E94B4218091B1
:103B1000610490916204009711F00C94B42108950F
:103B20008F929F92AF92BF92CF92DF92EF92FF92CD
:103B3000CF93DF93EC01688179818A819B81611544
:103B400071058105910521F464E279ED8BE597E03B
:103B50002DE133EF41E050E00E94341E49015A014B
:103B60009B01AC01A7EAB1E40E94531E6B017C01EA
:103B7000ACEEB4EFA50194010E94611EC60ED71EE3
:103B8000E81EF91EF7FE06C081E0C81AD108E10858
:103B900080E8F80AC882D982EA82FB82C701B601AE
:103BA0009F77DF91CF91FF90EF90DF90CF90BF9004
:103BB000AF909F908F9008958F929F92AF92BF92F7
:103BC000CF92DF92EF92FF926091240170912501D4
:103BD000809126019091270161157105810591055C
:103BE00021F464E279ED8BE597E02DE133EF41E0DC
:103BF00050E00E94341E49015A019B01AC01A7EA22
:103C0000B1E40E94531E6B017C01ACEEB4EFA50140
:103C100094010E94611EC60ED71EE81EF91EF7FE13
:103C200006C081E0C81AD108E10880E8F80AC0920D
:103C30002401D0922501E0922601F0922701C701CC
:103C4000B6019F77FF90EF90DF90CF90BF90AF903D
:103C50009F908F9008956093240170932501809325
:103C60002601909327010895052E97FB1EF40094DA
:103C70000E944B1E57FD07D00E94661E07FC03D012
:103C80004EF40C944B1E50954095309521953F4F26
:103C90004F4F5F4F089590958095709561957F4F38
:103CA0008F4F9F4F08950E94881EA59F900DB49F2F
:103CB000900DA49F800D911D11240895B7FF0C94C1
:103CC000531E0E94531E821B930B0895A1E21A2ECD
:103CD000AA1BBB1BFD010DC0AA1FBB1FEE1FFF1FB0
:103CE000A217B307E407F50720F0A21BB30BE40B00
:103CF000F50B661F771F881F991F1A9469F7609547
:103D00007095809590959B01AC01BD01CF01089500
:103D1000A29FB001B39FC001A39F700D811D11240C
:103D2000911DB29F700D811D1124911D0895505851
:103D3000BB27AA270E94AF1E0C9422200E941420A9
:103D400038F00E941B2020F039F49F3F19F426F42C
:103D50000C9411200EF4E095E7FB0C940B20E92F56
:103D60000E94332058F3BA17620773078407950738
:103D700020F079F4A6F50C9455200EF4E0950B2E66
:103D8000BA2FA02D0B01B90190010C01CA01A001AD
:103D90001124FF27591B99F0593F50F4503E68F108
:103DA0001A16F040A22F232F342F4427585FF3CF49
:103DB000469537952795A795F0405395C9F77EF41A
:103DC0001F16BA0B620B730B840BBAF09150A1F063
:103DD000FF0FBB1F661F771F881FC2F70EC0BA0FE9
:103DE000621F731F841F48F4879577956795B79571
:103DF000F7959E3F08F0B0CF9395880F08F099276C
:103E0000EE0F9795879508950E94E71F08F481E0CB
:103E100008950E941D1F0C9422200E941B2058F020
:103E20000E94142040F029F45F3F29F00C940B20ED
:103E300051110C9456200C9411200E94332068F3E9
:103E40009923B1F3552391F3951B550BBB27AA2753
:103E500062177307840738F09F5F5F4F220F331F8D
:103E6000441FAA1FA9F335D00E2E3AF0E0E832D055
:103E700091505040E695001CCAF72BD0FE2F29D058
:103E8000660F771F881FBB1F261737074807AB072A
:103E9000B0E809F0BB0B802DBF01FF2793585F4F9F
:103EA0003AF09E3F510578F00C940B200C9456206C
:103EB0005F3FE4F3983ED4F3869577956795B79581
:103EC000F7959F5FC9F7880F911D9695879597F98C
:103ED0000895E1E0660F771F881FBB1F6217730705
:103EE0008407BA0720F0621B730B840BBA0BEE1F1A
:103EF00088F7E09508950E943B2088F09F5798F03E
:103F0000B92F9927B751B0F0E1F0660F771F881FDE
:103F1000991F1AF0BA95C9F714C0B13091F00E94F8
:103F20005520B1E008950C945520672F782F8827ED
:103F3000B85F39F0B93FCCF3869577956795B3951F
:103F4000D9F73EF490958095709561957F4F8F4F8E
:103F50009F4F0895E89409C097FB3EF49095809593
:103F6000709561957F4F8F4F9F4F9923A9F0F92F3F
:103F700096E9BB279395F695879577956795B795BD
:103F8000F111F8CFFAF4BB0F11F460FF1BC06F5FA3
:103F90007F4F8F4F9F4F16C0882311F096E911C0B5
:103FA000772321F09EE8872F762F05C0662371F0D6
:103FB00096E8862F70E060E02AF09A95660F771FEA
:103FC000881FDAF7880F9695879597F90895990FC6
:103FD0000008550FAA0BE0E8FEEF16161706E807D3
:103FE000F907C0F012161306E407F50798F0621BF4
:103FF000730B840B950B39F40A2661F0232B242BC9
:10400000252B21F408950A2609F4A140A6958FEFE7
:10401000811D811D089597F99F6780E870E060E039
:1040200008959FEF80EC089500240A941616170651
:1040300018060906089500240A9412161306140699
:1040400005060895092E0394000C11F4882352F0FC
:10405000BB0F40F4BF2B11F460FF04C06F5F7F4FB4
:104060008F4F9F4F089557FD9058440F551F59F09B
:104070005F3F71F04795880F97FB991F61F09F3F55
:1040800079F087950895121613061406551FF2CF7E
:104090004695F1DF08C0161617061806991FF1CFCE
:1040A00086957105610508940895E894BB276627F5
:1040B0007727CB0197F908950E94E71F08F48FEF47
:1040C00008950E9474200C9422200E94142038F03D
:1040D0000E941B2020F0952311F00C940B200C94CF
:1040E000112011240C9456200E94332070F3959FC8
:1040F000C1F3950F50E0551F629FF001729FBB27DF
:10410000F00DB11D639FAA27F00DB11DAA1F649F7A
:104110006627B00DA11D661F829F2227B00DA11D2D
:10412000621F739FB00DA11D621F839FA00D611DB3
:10413000221F749F3327A00D611D231F849F600DD4
:10414000211D822F762F6A2F11249F5750409AF0FD
:10415000F1F088234AF0EE0FFF1FBB1F661F771F89
:10416000881F91505040A9F79E3F510580F00C9454
:104170000B200C9456205F3FE4F3983ED4F38695D1
:1041800077956795B795F795E7959F5FC1F7FE2BF4
:10419000880F911D9695879597F908950E94E71FBE
:1041A000880B990B0895DB018F939F930E94531EF8
:1041B000BF91AF91A29F800D911DA39F900DB29FC3
:1041C000900D11240895991B79E004C0991F96174A
:1041D00008F0961B881F7A95C9F780950895AA1B49
:1041E000BB1B51E107C0AA1FBB1FA617B70710F0E2
:1041F000A61BB70B881F991F5A95A9F78095909514
:10420000BC01CD010895EE0FFF1F0590F491E02D44
:1042100009940E94881E332312F48A1B9B0B0C9472
:1042200013210E94881EB7FF0895821B930B0895E7
:104230000F931F93CF93DF938230910510F482E0A8
:1042400090E0E0916F04F091700430E020E0B0E085
:10425000A0E0309799F42115310509F44AC0281BD4
:10426000390B24303105D8F58A819B8161157105A0
:1042700089F1FB0193838283FE0111C0408151814A
:104280000281138148175907E0F04817590799F43C
:10429000109761F012960C93129713961C93329616
:1042A000CF01DF91CF911F910F91089500936F047B
:1042B00010937004F4CF2115310551F042175307C4
:1042C00038F0A901DB019A01BD01DF01F801C1CF7E
:1042D000EF01F9CF9093700480936F04CDCFFE016E
:1042E000E20FF31F81939193225031093983288380
:1042F000D7CF20916D0430916E04232B41F420918F
:104300002A0130912B0130936E0420936D0420918B
:104310002801309129012115310541F42DB73EB70F
:1043200040912C0150912D01241B350BE0916D041F
:10433000F0916E04E217F307A0F42E1B3F0B281731
:10434000390778F0AC014E5F5F4F2417350748F00E
:104350004E0F5F1F50936E0440936D0481939193B1
:104360009FCFF0E0E0E09CCFCF93DF930097E9F0A0
:10437000FC01329713821282A0916F04B0917004F5
:10438000ED0130E020E01097A1F420813181820F0F
:10439000931F20916D0430916E042817390709F09E
:1043A00061C0F0936E04E0936D04DF91CF910895A6
:1043B000EA01CE17DF07E8F54A815B819E014115CE
:1043C0005105B1F7E901FB83EA8349915991C40F83
:1043D000D51FEC17FD0761F4808191810296840F4F
:1043E000951FE90199838883828193819B838A83C6
:1043F000F0E0E0E012968D919C9113970097B9F54B
:104400002D913C911197CD010296820F931F20911F
:104410006D0430916E042817390739F6309751F53D
:104420001092700410926F04B0936E04A0936D0408
:10443000BCCFD383C28340815181840F951FC8179D
:10444000D90761F44E5F5F4F88819981480F591FEA
:10445000518340838A819B81938382832115310517
:1044600009F0B0CFF0937004E0936F049ECFFD018C
:10447000DC01C0CF13821282D7CF81E090E0F894A4
:104480000C945222FB01DC0102C001900D924150BC
:104490005040D8F70895DC0101C06D934150504061
:1044A000E0F7089511E0C8EDD1E004C0FE010E94DC
:0E44B00003212196C93DD107C9F7F894FFCF2B
:1044BE0063000F00F401D00704000401FFFFFFFFAB
:1044CE0000E1000000000000E703E703E703E70355
:1044DE00E703C409010000000000710480001214FB
:1044EE0015040C9C01B501CF01EA01070226024713
:1044FE000269028E02B502DE020A0300C18081004B
:10450E00000000000000FF047A0420051505660572
:10451E0024054205000000003F0FCE10C90BC80B4A
:10452E0000000000CD0D000000008810000000000B
:10453E00A206000000002A076E616E00696E66001A
:10454E006F76660063616C696272617465005461B6
:10455E007869206973206F726465726564000D0A54
:10456E000052616E646F6D2043726F7373207069B9
:10457E00636B75703A200052616E646F6D204465F6
:10458E007374696E6174696F6E3A20004472697655
:10459E00696E6720746F2000426F626572206E72C2
:1045AE002E20005069636B696E6720757000576529
:1045BE0020686176652061727269766564210059A2
:1045CE006F757220746F74616C2069733A20005499
:1045DE006178696D657465722072756E6E696E674D
:1045EE000042616E6B2042616C616E63653A200021
:1045FE0043726F73736573207061737365643A20D1
:02460E000000AA
:00000001FF
